{
	"test.sol": {
		"Satoshi": {
			"abi": [
				{
					"inputs": [
						{
							"internalType": "string",
							"name": "_hash",
							"type": "string"
						}
					],
					"name": "getHash",
					"outputs": [
						{
							"internalType": "address",
							"name": "",
							"type": "address"
						}
					],
					"stateMutability": "view",
					"type": "function"
				},
				{
					"inputs": [
						{
							"internalType": "string",
							"name": "_hash",
							"type": "string"
						}
					],
					"name": "setHash",
					"outputs": [],
					"stateMutability": "nonpayable",
					"type": "function"
				}
			],
			"devdoc": {
				"kind": "dev",
				"methods": {},
				"version": 1
			},
			"evm": {
				"assembly": "    /* \"test.sol\":65:330  contract Satoshi {... */\n  mstore(0x40, 0x80)\n  callvalue\n  dup1\n  iszero\n  tag_1\n  jumpi\n  0x00\n  dup1\n  revert\ntag_1:\n  pop\n  dataSize(sub_0)\n  dup1\n  dataOffset(sub_0)\n  0x00\n  codecopy\n  0x00\n  return\nstop\n\nsub_0: assembly {\n        /* \"test.sol\":65:330  contract Satoshi {... */\n      mstore(0x40, 0x80)\n      callvalue\n      dup1\n      iszero\n      tag_1\n      jumpi\n      0x00\n      dup1\n      revert\n    tag_1:\n      pop\n      jumpi(tag_2, lt(calldatasize, 0x04))\n      shr(0xe0, calldataload(0x00))\n      dup1\n      0x1ed83fd4\n      eq\n      tag_3\n      jumpi\n      dup1\n      0x5b6beeb9\n      eq\n      tag_4\n      jumpi\n    tag_2:\n      0x00\n      dup1\n      revert\n        /* \"test.sol\":243:327  function setHash(string calldata _hash) public {... */\n    tag_3:\n      tag_5\n      0x04\n      dup1\n      calldatasize\n      sub\n      dup2\n      add\n      swap1\n      tag_6\n      swap2\n      swap1\n      tag_7\n      jump\t// in\n    tag_6:\n      tag_8\n      jump\t// in\n    tag_5:\n      stop\n        /* \"test.sol\":133:238  function getHash(string calldata _hash) external view returns (address) {... */\n    tag_4:\n      tag_9\n      0x04\n      dup1\n      calldatasize\n      sub\n      dup2\n      add\n      swap1\n      tag_10\n      swap2\n      swap1\n      tag_7\n      jump\t// in\n    tag_10:\n      tag_11\n      jump\t// in\n    tag_9:\n      mload(0x40)\n      tag_12\n      swap2\n      swap1\n      tag_13\n      jump\t// in\n    tag_12:\n      mload(0x40)\n      dup1\n      swap2\n      sub\n      swap1\n      return\n        /* \"test.sol\":243:327  function setHash(string calldata _hash) public {... */\n    tag_8:\n        /* \"test.sol\":311:321  msg.sender */\n      caller\n        /* \"test.sol\":297:303  hashes */\n      0x00\n        /* \"test.sol\":304:309  _hash */\n      dup4\n      dup4\n        /* \"test.sol\":297:310  hashes[_hash] */\n      mload(0x40)\n      tag_15\n      swap3\n      swap2\n      swap1\n      tag_16\n      jump\t// in\n    tag_15:\n      swap1\n      dup2\n      mstore\n      0x20\n      add\n      mload(0x40)\n      dup1\n      swap2\n      sub\n      swap1\n      keccak256\n      0x00\n        /* \"test.sol\":297:321  hashes[_hash]=msg.sender */\n      0x0100\n      exp\n      dup2\n      sload\n      dup2\n      0xffffffffffffffffffffffffffffffffffffffff\n      mul\n      not\n      and\n      swap1\n      dup4\n      0xffffffffffffffffffffffffffffffffffffffff\n      and\n      mul\n      or\n      swap1\n      sstore\n      pop\n        /* \"test.sol\":243:327  function setHash(string calldata _hash) public {... */\n      pop\n      pop\n      jump\t// out\n        /* \"test.sol\":133:238  function getHash(string calldata _hash) external view returns (address) {... */\n    tag_11:\n        /* \"test.sol\":196:203  address */\n      0x00\n        /* \"test.sol\":219:225  hashes */\n      dup1\n        /* \"test.sol\":226:231  _hash */\n      dup4\n      dup4\n        /* \"test.sol\":219:232  hashes[_hash] */\n      mload(0x40)\n      tag_18\n      swap3\n      swap2\n      swap1\n      tag_16\n      jump\t// in\n    tag_18:\n      swap1\n      dup2\n      mstore\n      0x20\n      add\n      mload(0x40)\n      dup1\n      swap2\n      sub\n      swap1\n      keccak256\n      0x00\n      swap1\n      sload\n      swap1\n      0x0100\n      exp\n      swap1\n      div\n      0xffffffffffffffffffffffffffffffffffffffff\n      and\n        /* \"test.sol\":212:232  return hashes[_hash] */\n      swap1\n      pop\n        /* \"test.sol\":133:238  function getHash(string calldata _hash) external view returns (address) {... */\n      swap3\n      swap2\n      pop\n      pop\n      jump\t// out\n        /* \"#utility.yul\":88:205   */\n    tag_20:\n        /* \"#utility.yul\":197:198   */\n      0x00\n        /* \"#utility.yul\":194:195   */\n      dup1\n        /* \"#utility.yul\":187:199   */\n      revert\n        /* \"#utility.yul\":211:328   */\n    tag_21:\n        /* \"#utility.yul\":320:321   */\n      0x00\n        /* \"#utility.yul\":317:318   */\n      dup1\n        /* \"#utility.yul\":310:322   */\n      revert\n        /* \"#utility.yul\":334:451   */\n    tag_22:\n        /* \"#utility.yul\":443:444   */\n      0x00\n        /* \"#utility.yul\":440:441   */\n      dup1\n        /* \"#utility.yul\":433:445   */\n      revert\n        /* \"#utility.yul\":457:574   */\n    tag_23:\n        /* \"#utility.yul\":566:567   */\n      0x00\n        /* \"#utility.yul\":563:564   */\n      dup1\n        /* \"#utility.yul\":556:568   */\n      revert\n        /* \"#utility.yul\":580:697   */\n    tag_24:\n        /* \"#utility.yul\":689:690   */\n      0x00\n        /* \"#utility.yul\":686:687   */\n      dup1\n        /* \"#utility.yul\":679:691   */\n      revert\n        /* \"#utility.yul\":717:1270   */\n    tag_25:\n        /* \"#utility.yul\":775:783   */\n      0x00\n        /* \"#utility.yul\":785:791   */\n      dup1\n        /* \"#utility.yul\":835:838   */\n      dup4\n        /* \"#utility.yul\":828:832   */\n      0x1f\n        /* \"#utility.yul\":820:826   */\n      dup5\n        /* \"#utility.yul\":816:833   */\n      add\n        /* \"#utility.yul\":812:839   */\n      slt\n        /* \"#utility.yul\":802:924   */\n      tag_40\n      jumpi\n        /* \"#utility.yul\":843:922   */\n      tag_41\n      tag_22\n      jump\t// in\n    tag_41:\n        /* \"#utility.yul\":802:924   */\n    tag_40:\n        /* \"#utility.yul\":956:962   */\n      dup3\n        /* \"#utility.yul\":943:963   */\n      calldataload\n        /* \"#utility.yul\":933:963   */\n      swap1\n      pop\n        /* \"#utility.yul\":986:1004   */\n      0xffffffffffffffff\n        /* \"#utility.yul\":978:984   */\n      dup2\n        /* \"#utility.yul\":975:1005   */\n      gt\n        /* \"#utility.yul\":972:1089   */\n      iszero\n      tag_42\n      jumpi\n        /* \"#utility.yul\":1008:1087   */\n      tag_43\n      tag_23\n      jump\t// in\n    tag_43:\n        /* \"#utility.yul\":972:1089   */\n    tag_42:\n        /* \"#utility.yul\":1122:1126   */\n      0x20\n        /* \"#utility.yul\":1114:1120   */\n      dup4\n        /* \"#utility.yul\":1110:1127   */\n      add\n        /* \"#utility.yul\":1098:1127   */\n      swap2\n      pop\n        /* \"#utility.yul\":1176:1179   */\n      dup4\n        /* \"#utility.yul\":1168:1172   */\n      0x01\n        /* \"#utility.yul\":1160:1166   */\n      dup3\n        /* \"#utility.yul\":1156:1173   */\n      mul\n        /* \"#utility.yul\":1146:1154   */\n      dup4\n        /* \"#utility.yul\":1142:1174   */\n      add\n        /* \"#utility.yul\":1139:1180   */\n      gt\n        /* \"#utility.yul\":1136:1264   */\n      iszero\n      tag_44\n      jumpi\n        /* \"#utility.yul\":1183:1262   */\n      tag_45\n      tag_24\n      jump\t// in\n    tag_45:\n        /* \"#utility.yul\":1136:1264   */\n    tag_44:\n        /* \"#utility.yul\":717:1270   */\n      swap3\n      pop\n      swap3\n      swap1\n      pop\n      jump\t// out\n        /* \"#utility.yul\":1276:1805   */\n    tag_7:\n        /* \"#utility.yul\":1347:1353   */\n      0x00\n        /* \"#utility.yul\":1355:1361   */\n      dup1\n        /* \"#utility.yul\":1404:1406   */\n      0x20\n        /* \"#utility.yul\":1392:1401   */\n      dup4\n        /* \"#utility.yul\":1383:1390   */\n      dup6\n        /* \"#utility.yul\":1379:1402   */\n      sub\n        /* \"#utility.yul\":1375:1407   */\n      slt\n        /* \"#utility.yul\":1372:1491   */\n      iszero\n      tag_47\n      jumpi\n        /* \"#utility.yul\":1410:1489   */\n      tag_48\n      tag_20\n      jump\t// in\n    tag_48:\n        /* \"#utility.yul\":1372:1491   */\n    tag_47:\n        /* \"#utility.yul\":1558:1559   */\n      0x00\n        /* \"#utility.yul\":1547:1556   */\n      dup4\n        /* \"#utility.yul\":1543:1560   */\n      add\n        /* \"#utility.yul\":1530:1561   */\n      calldataload\n        /* \"#utility.yul\":1588:1606   */\n      0xffffffffffffffff\n        /* \"#utility.yul\":1580:1586   */\n      dup2\n        /* \"#utility.yul\":1577:1607   */\n      gt\n        /* \"#utility.yul\":1574:1691   */\n      iszero\n      tag_49\n      jumpi\n        /* \"#utility.yul\":1610:1689   */\n      tag_50\n      tag_21\n      jump\t// in\n    tag_50:\n        /* \"#utility.yul\":1574:1691   */\n    tag_49:\n        /* \"#utility.yul\":1723:1788   */\n      tag_51\n        /* \"#utility.yul\":1780:1787   */\n      dup6\n        /* \"#utility.yul\":1771:1777   */\n      dup3\n        /* \"#utility.yul\":1760:1769   */\n      dup7\n        /* \"#utility.yul\":1756:1778   */\n      add\n        /* \"#utility.yul\":1723:1788   */\n      tag_25\n      jump\t// in\n    tag_51:\n        /* \"#utility.yul\":1705:1788   */\n      swap3\n      pop\n      swap3\n      pop\n        /* \"#utility.yul\":1501:1798   */\n      pop\n        /* \"#utility.yul\":1276:1805   */\n      swap3\n      pop\n      swap3\n      swap1\n      pop\n      jump\t// out\n        /* \"#utility.yul\":1811:1937   */\n    tag_26:\n        /* \"#utility.yul\":1848:1855   */\n      0x00\n        /* \"#utility.yul\":1888:1930   */\n      0xffffffffffffffffffffffffffffffffffffffff\n        /* \"#utility.yul\":1881:1886   */\n      dup3\n        /* \"#utility.yul\":1877:1931   */\n      and\n        /* \"#utility.yul\":1866:1931   */\n      swap1\n      pop\n        /* \"#utility.yul\":1811:1937   */\n      swap2\n      swap1\n      pop\n      jump\t// out\n        /* \"#utility.yul\":1943:2039   */\n    tag_27:\n        /* \"#utility.yul\":1980:1987   */\n      0x00\n        /* \"#utility.yul\":2009:2033   */\n      tag_54\n        /* \"#utility.yul\":2027:2032   */\n      dup3\n        /* \"#utility.yul\":2009:2033   */\n      tag_26\n      jump\t// in\n    tag_54:\n        /* \"#utility.yul\":1998:2033   */\n      swap1\n      pop\n        /* \"#utility.yul\":1943:2039   */\n      swap2\n      swap1\n      pop\n      jump\t// out\n        /* \"#utility.yul\":2045:2163   */\n    tag_28:\n        /* \"#utility.yul\":2132:2156   */\n      tag_56\n        /* \"#utility.yul\":2150:2155   */\n      dup2\n        /* \"#utility.yul\":2132:2156   */\n      tag_27\n      jump\t// in\n    tag_56:\n        /* \"#utility.yul\":2127:2130   */\n      dup3\n        /* \"#utility.yul\":2120:2157   */\n      mstore\n        /* \"#utility.yul\":2045:2163   */\n      pop\n      pop\n      jump\t// out\n        /* \"#utility.yul\":2169:2391   */\n    tag_13:\n        /* \"#utility.yul\":2262:2266   */\n      0x00\n        /* \"#utility.yul\":2300:2302   */\n      0x20\n        /* \"#utility.yul\":2289:2298   */\n      dup3\n        /* \"#utility.yul\":2285:2303   */\n      add\n        /* \"#utility.yul\":2277:2303   */\n      swap1\n      pop\n        /* \"#utility.yul\":2313:2384   */\n      tag_58\n        /* \"#utility.yul\":2381:2382   */\n      0x00\n        /* \"#utility.yul\":2370:2379   */\n      dup4\n        /* \"#utility.yul\":2366:2383   */\n      add\n        /* \"#utility.yul\":2357:2363   */\n      dup5\n        /* \"#utility.yul\":2313:2384   */\n      tag_28\n      jump\t// in\n    tag_58:\n        /* \"#utility.yul\":2169:2391   */\n      swap3\n      swap2\n      pop\n      pop\n      jump\t// out\n        /* \"#utility.yul\":2397:2545   */\n    tag_29:\n        /* \"#utility.yul\":2499:2510   */\n      0x00\n        /* \"#utility.yul\":2536:2539   */\n      dup2\n        /* \"#utility.yul\":2521:2539   */\n      swap1\n      pop\n        /* \"#utility.yul\":2397:2545   */\n      swap3\n      swap2\n      pop\n      pop\n      jump\t// out\n        /* \"#utility.yul\":2551:2699   */\n    tag_30:\n        /* \"#utility.yul\":2649:2655   */\n      dup3\n        /* \"#utility.yul\":2644:2647   */\n      dup2\n        /* \"#utility.yul\":2639:2642   */\n      dup4\n        /* \"#utility.yul\":2626:2656   */\n      calldatacopy\n        /* \"#utility.yul\":2690:2691   */\n      0x00\n        /* \"#utility.yul\":2681:2687   */\n      dup4\n        /* \"#utility.yul\":2676:2679   */\n      dup4\n        /* \"#utility.yul\":2672:2688   */\n      add\n        /* \"#utility.yul\":2665:2692   */\n      mstore\n        /* \"#utility.yul\":2551:2699   */\n      pop\n      pop\n      pop\n      jump\t// out\n        /* \"#utility.yul\":2729:3059   */\n    tag_31:\n        /* \"#utility.yul\":2845:2848   */\n      0x00\n        /* \"#utility.yul\":2866:2955   */\n      tag_62\n        /* \"#utility.yul\":2948:2954   */\n      dup4\n        /* \"#utility.yul\":2943:2946   */\n      dup6\n        /* \"#utility.yul\":2866:2955   */\n      tag_29\n      jump\t// in\n    tag_62:\n        /* \"#utility.yul\":2859:2955   */\n      swap4\n      pop\n        /* \"#utility.yul\":2965:3021   */\n      tag_63\n        /* \"#utility.yul\":3014:3020   */\n      dup4\n        /* \"#utility.yul\":3009:3012   */\n      dup6\n        /* \"#utility.yul\":3002:3007   */\n      dup5\n        /* \"#utility.yul\":2965:3021   */\n      tag_30\n      jump\t// in\n    tag_63:\n        /* \"#utility.yul\":3046:3052   */\n      dup3\n        /* \"#utility.yul\":3041:3044   */\n      dup5\n        /* \"#utility.yul\":3037:3053   */\n      add\n        /* \"#utility.yul\":3030:3053   */\n      swap1\n      pop\n        /* \"#utility.yul\":2729:3059   */\n      swap4\n      swap3\n      pop\n      pop\n      pop\n      jump\t// out\n        /* \"#utility.yul\":3065:3360   */\n    tag_16:\n        /* \"#utility.yul\":3207:3210   */\n      0x00\n        /* \"#utility.yul\":3229:3334   */\n      tag_65\n        /* \"#utility.yul\":3330:3333   */\n      dup3\n        /* \"#utility.yul\":3321:3327   */\n      dup5\n        /* \"#utility.yul\":3313:3319   */\n      dup7\n        /* \"#utility.yul\":3229:3334   */\n      tag_31\n      jump\t// in\n    tag_65:\n        /* \"#utility.yul\":3222:3334   */\n      swap2\n      pop\n        /* \"#utility.yul\":3351:3354   */\n      dup2\n        /* \"#utility.yul\":3344:3354   */\n      swap1\n      pop\n        /* \"#utility.yul\":3065:3360   */\n      swap4\n      swap3\n      pop\n      pop\n      pop\n      jump\t// out\n\n    auxdata: 0xa26469706673582212204cb790552031120a11d7211c0d3be88658a6da4e2af463a1b3a1c43e4d943c7c64736f6c63430008190033\n}\n",
				"bytecode": {
					"linkReferences": {},
					"object": "6080604052348015600e575f80fd5b506102c38061001c5f395ff3fe608060405234801561000f575f80fd5b5060043610610034575f3560e01c80631ed83fd4146100385780635b6beeb914610054575b5f80fd5b610052600480360381019061004d9190610196565b610084565b005b61006e60048036038101906100699190610196565b6100e5565b60405161007b9190610220565b60405180910390f35b335f8383604051610096929190610275565b90815260200160405180910390205f6101000a81548173ffffffffffffffffffffffffffffffffffffffff021916908373ffffffffffffffffffffffffffffffffffffffff1602179055505050565b5f8083836040516100f7929190610275565b90815260200160405180910390205f9054906101000a900473ffffffffffffffffffffffffffffffffffffffff16905092915050565b5f80fd5b5f80fd5b5f80fd5b5f80fd5b5f80fd5b5f8083601f84011261015657610155610135565b5b8235905067ffffffffffffffff81111561017357610172610139565b5b60208301915083600182028301111561018f5761018e61013d565b5b9250929050565b5f80602083850312156101ac576101ab61012d565b5b5f83013567ffffffffffffffff8111156101c9576101c8610131565b5b6101d585828601610141565b92509250509250929050565b5f73ffffffffffffffffffffffffffffffffffffffff82169050919050565b5f61020a826101e1565b9050919050565b61021a81610200565b82525050565b5f6020820190506102335f830184610211565b92915050565b5f81905092915050565b828183375f83830152505050565b5f61025c8385610239565b9350610269838584610243565b82840190509392505050565b5f610281828486610251565b9150819050939250505056fea26469706673582212204cb790552031120a11d7211c0d3be88658a6da4e2af463a1b3a1c43e4d943c7c64736f6c63430008190033",
					"opcodes": "PUSH1 0x80 PUSH1 0x40 MSTORE CALLVALUE DUP1 ISZERO PUSH1 0xE JUMPI PUSH0 DUP1 REVERT JUMPDEST POP PUSH2 0x2C3 DUP1 PUSH2 0x1C PUSH0 CODECOPY PUSH0 RETURN INVALID PUSH1 0x80 PUSH1 0x40 MSTORE CALLVALUE DUP1 ISZERO PUSH2 0xF JUMPI PUSH0 DUP1 REVERT JUMPDEST POP PUSH1 0x4 CALLDATASIZE LT PUSH2 0x34 JUMPI PUSH0 CALLDATALOAD PUSH1 0xE0 SHR DUP1 PUSH4 0x1ED83FD4 EQ PUSH2 0x38 JUMPI DUP1 PUSH4 0x5B6BEEB9 EQ PUSH2 0x54 JUMPI JUMPDEST PUSH0 DUP1 REVERT JUMPDEST PUSH2 0x52 PUSH1 0x4 DUP1 CALLDATASIZE SUB DUP2 ADD SWAP1 PUSH2 0x4D SWAP2 SWAP1 PUSH2 0x196 JUMP JUMPDEST PUSH2 0x84 JUMP JUMPDEST STOP JUMPDEST PUSH2 0x6E PUSH1 0x4 DUP1 CALLDATASIZE SUB DUP2 ADD SWAP1 PUSH2 0x69 SWAP2 SWAP1 PUSH2 0x196 JUMP JUMPDEST PUSH2 0xE5 JUMP JUMPDEST PUSH1 0x40 MLOAD PUSH2 0x7B SWAP2 SWAP1 PUSH2 0x220 JUMP JUMPDEST PUSH1 0x40 MLOAD DUP1 SWAP2 SUB SWAP1 RETURN JUMPDEST CALLER PUSH0 DUP4 DUP4 PUSH1 0x40 MLOAD PUSH2 0x96 SWAP3 SWAP2 SWAP1 PUSH2 0x275 JUMP JUMPDEST SWAP1 DUP2 MSTORE PUSH1 0x20 ADD PUSH1 0x40 MLOAD DUP1 SWAP2 SUB SWAP1 KECCAK256 PUSH0 PUSH2 0x100 EXP DUP2 SLOAD DUP2 PUSH20 0xFFFFFFFFFFFFFFFFFFFFFFFFFFFFFFFFFFFFFFFF MUL NOT AND SWAP1 DUP4 PUSH20 0xFFFFFFFFFFFFFFFFFFFFFFFFFFFFFFFFFFFFFFFF AND MUL OR SWAP1 SSTORE POP POP POP JUMP JUMPDEST PUSH0 DUP1 DUP4 DUP4 PUSH1 0x40 MLOAD PUSH2 0xF7 SWAP3 SWAP2 SWAP1 PUSH2 0x275 JUMP JUMPDEST SWAP1 DUP2 MSTORE PUSH1 0x20 ADD PUSH1 0x40 MLOAD DUP1 SWAP2 SUB SWAP1 KECCAK256 PUSH0 SWAP1 SLOAD SWAP1 PUSH2 0x100 EXP SWAP1 DIV PUSH20 0xFFFFFFFFFFFFFFFFFFFFFFFFFFFFFFFFFFFFFFFF AND SWAP1 POP SWAP3 SWAP2 POP POP JUMP JUMPDEST PUSH0 DUP1 REVERT JUMPDEST PUSH0 DUP1 REVERT JUMPDEST PUSH0 DUP1 REVERT JUMPDEST PUSH0 DUP1 REVERT JUMPDEST PUSH0 DUP1 REVERT JUMPDEST PUSH0 DUP1 DUP4 PUSH1 0x1F DUP5 ADD SLT PUSH2 0x156 JUMPI PUSH2 0x155 PUSH2 0x135 JUMP JUMPDEST JUMPDEST DUP3 CALLDATALOAD SWAP1 POP PUSH8 0xFFFFFFFFFFFFFFFF DUP2 GT ISZERO PUSH2 0x173 JUMPI PUSH2 0x172 PUSH2 0x139 JUMP JUMPDEST JUMPDEST PUSH1 0x20 DUP4 ADD SWAP2 POP DUP4 PUSH1 0x1 DUP3 MUL DUP4 ADD GT ISZERO PUSH2 0x18F JUMPI PUSH2 0x18E PUSH2 0x13D JUMP JUMPDEST JUMPDEST SWAP3 POP SWAP3 SWAP1 POP JUMP JUMPDEST PUSH0 DUP1 PUSH1 0x20 DUP4 DUP6 SUB SLT ISZERO PUSH2 0x1AC JUMPI PUSH2 0x1AB PUSH2 0x12D JUMP JUMPDEST JUMPDEST PUSH0 DUP4 ADD CALLDATALOAD PUSH8 0xFFFFFFFFFFFFFFFF DUP2 GT ISZERO PUSH2 0x1C9 JUMPI PUSH2 0x1C8 PUSH2 0x131 JUMP JUMPDEST JUMPDEST PUSH2 0x1D5 DUP6 DUP3 DUP7 ADD PUSH2 0x141 JUMP JUMPDEST SWAP3 POP SWAP3 POP POP SWAP3 POP SWAP3 SWAP1 POP JUMP JUMPDEST PUSH0 PUSH20 0xFFFFFFFFFFFFFFFFFFFFFFFFFFFFFFFFFFFFFFFF DUP3 AND SWAP1 POP SWAP2 SWAP1 POP JUMP JUMPDEST PUSH0 PUSH2 0x20A DUP3 PUSH2 0x1E1 JUMP JUMPDEST SWAP1 POP SWAP2 SWAP1 POP JUMP JUMPDEST PUSH2 0x21A DUP2 PUSH2 0x200 JUMP JUMPDEST DUP3 MSTORE POP POP JUMP JUMPDEST PUSH0 PUSH1 0x20 DUP3 ADD SWAP1 POP PUSH2 0x233 PUSH0 DUP4 ADD DUP5 PUSH2 0x211 JUMP JUMPDEST SWAP3 SWAP2 POP POP JUMP JUMPDEST PUSH0 DUP2 SWAP1 POP SWAP3 SWAP2 POP POP JUMP JUMPDEST DUP3 DUP2 DUP4 CALLDATACOPY PUSH0 DUP4 DUP4 ADD MSTORE POP POP POP JUMP JUMPDEST PUSH0 PUSH2 0x25C DUP4 DUP6 PUSH2 0x239 JUMP JUMPDEST SWAP4 POP PUSH2 0x269 DUP4 DUP6 DUP5 PUSH2 0x243 JUMP JUMPDEST DUP3 DUP5 ADD SWAP1 POP SWAP4 SWAP3 POP POP POP JUMP JUMPDEST PUSH0 PUSH2 0x281 DUP3 DUP5 DUP7 PUSH2 0x251 JUMP JUMPDEST SWAP2 POP DUP2 SWAP1 POP SWAP4 SWAP3 POP POP POP JUMP INVALID LOG2 PUSH5 0x6970667358 0x22 SLT KECCAK256 0x4C 0xB7 SWAP1 SSTORE KECCAK256 BALANCE SLT EXP GT 0xD7 0x21 SHR 0xD EXTCODESIZE 0xE8 DUP7 PC 0xA6 0xDA 0x4E 0x2A DELEGATECALL PUSH4 0xA1B3A1C4 RETURNDATACOPY 0x4D SWAP5 EXTCODECOPY PUSH29 0x64736F6C63430008190033000000000000000000000000000000000000 "
				},
				"gasEstimates": {
					"creation": {
						"codeDepositCost": "141400",
						"executionCost": "188",
						"totalCost": "141588"
					},
					"external": {
						"getHash(string)": "infinite",
						"setHash(string)": "infinite"
					}
				},
				"methodIdentifiers": {
					"getHash(string)": "5b6beeb9",
					"setHash(string)": "1ed83fd4"
				}
			},
			"storageLayout": {
				"storage": [
					{
						"astId": 5,
						"contract": "test.sol:Satoshi",
						"label": "hashes",
						"offset": 0,
						"slot": "0",
						"type": "t_mapping(t_string_memory_ptr,t_address)"
					}
				],
				"types": {
					"t_address": {
						"encoding": "inplace",
						"label": "address",
						"numberOfBytes": "20"
					},
					"t_mapping(t_string_memory_ptr,t_address)": {
						"encoding": "mapping",
						"key": "t_string_memory_ptr",
						"label": "mapping(string => address)",
						"numberOfBytes": "32",
						"value": "t_address"
					},
					"t_string_memory_ptr": {
						"encoding": "bytes",
						"label": "string",
						"numberOfBytes": "32"
					}
				}
			},
			"userdoc": {
				"kind": "user",
				"methods": {},
				"version": 1
			}
		}
	}
}